:100000000C9464000C948C000C948C000C94970459
:100010000C9497040C9497040C948C000C948C0012
:100020000C948C000C948C000C948C000C948C0020
:100030000C948C000C948C000C948C000C948C0010
:100040000C94FE080C948C000C944E070C948007C2
:100050000C948C000C948C000C948C000C948C00F0
:100060000C948C000C948C0000000008000201002D
:100070000003040700000000000000000102040863
:100080001020408001020408102001020408102002
:10009000040404040404040402020202020203032E
:1000A00003030303000000002300260029000000D2
:1000B0000000250028002B0000000000240027007D
:1000C0002A00BA00B007D20011241FBECFEFD8E03B
:1000D000DEBFCDBF11E0A0E0B1E0E4E3F6E102C095
:1000E00005900D92A23AB107D9F723E0A2EAB1E058
:1000F00001C01D92A930B207E1F710E0C3E6D0E0DD
:1001000004C02197FE010E94070BC136D107C9F731
:100110000E94DE070C940D0B0C94000040E855E2A1
:1001200060E070E080E092E00E94950526E040E803
:1001300055E260E070E083E692E00E94E90664E642
:1001400071E083E692E00E94350840E060E070E0F4
:1001500088EA91E00E949A0248E050E060E070E096
:1001600088EA91E00E94BF0260E070E088EA91E0D6
:100170000C94D1020F931F9320E049E068E080E0E7
:1001800092E00E946A0501E010E02AE030E04BE0D6
:1001900050E06CE070E088EA91E00E9405031F9156
:1001A0000F91089580E092E00C941105CF9380E0C8
:1001B00092E00E943104892BB1F180E092E00E942C
:1001C000A60380930201682F83E692E00E9447080D
:1001D000809102018B3269F08D3219F58091000116
:1001E000909101018A3124E0920784F48C599F4F49
:1001F00009C080910001909101018333910534F091
:10020000845691099093010180930001609100014F
:10021000709101014AE050E080E092E00E94F7080E
:1002200002C08093030180910301823309F456C018
:1002300054F4803399F0813309F0B0C01092A301D7
:100240001092A2012DC0833309F46AC0843309F0EF
:10025000A5C01092A3011092A20183C01092A30125
:100260001092A2014091A2015091A3014830510582
:100270000CF094C0FA01EE0FFF1FEC5FFE4F2081DF
:1002800060E070E088EA91E00E9489038091A20119
:100290009091A30101969093A3018093A201E2CFD4
:1002A0004091A2015091A301483051050CF076C055
:1002B000FA01EE0FFF1FE45BFE4F208160E070E06B
:1002C00088EA91E00E9489038091A2019091A301A4
:1002D00001969093A3018093A201E2CF1092A30113
:1002E0001092A2014091A2015091A3014830510502
:1002F0000CF054C0FA01EE0FFF1FEC5EFE4F2081A0
:1003000060E070E088EA91E00E9489038091A20198
:100310009091A30101969093A3018093A201E2CF53
:100320001092A3011092A2014091A2015091A30149
:10033000483051059CF5FA01EE0FFF1FEC5DFE4FB2
:10034000208160E070E088EA91E00E94890380915A
:10035000A2019091A30101969093A3018093A20121
:10036000E3CF4091A2015091A30148305105B4F46C
:10037000FA01EE0FFF1FEC5CFE4F208160E070E0A1
:1003800088EA91E00E9489038091A2019091A301E3
:1003900001969093A3018093A201E3CFA4E1B1E081
:1003A000E4E2F1E020E030E040E058E061E070E0BD
:1003B0002730310509F1808191818130910519F44F
:1003C0005183408304C095958795918380838D9157
:1003D0009C9111978115C8E09C0721F411967C939C
:1003E0006E9305C0880F991F11969C938E932F5F73
:1003F0003F4F12963296DCCF4091620150916301DB
:100400005093A7014093A60120913401309135010A
:100410003093A5012093A401ECE4F1E0A4E3B1E062
:1004200080E090E032978B30910561F066897789A2
:10043000718F608F019612966D917C9113976D93D9
:100440007D93F0CF9093A3018093A20150934D012F
:1004500040934C0130934B0120934A01609100017D
:1004600070910101072E000C880B990BCF910C9411
:100470006D098F929F92AF92BF92CF92DF92EF92CF
:10048000FF920F931F93CF93DF9300D0CDB7DEB7CA
:100490008C0149832A83660F771FF801EA5AFF4FC0
:1004A000E080F180EE0CFF1CF801CF01801B910B66
:1004B0008E159F0514F41192F8CF8981F801E60F8B
:1004C000F71F81838A818083680184E5C80ED11C6F
:1004D00060E0F60180810E94350A4801F2E58F0E46
:1004E000911C580180E5A80EB11C1E141F047CF459
:1004F000E1E0EE1AF108F801EE0DFF1D208141E068
:10050000F4016081F50180810E94640AEECF61E010
:10051000F60180810F900F90DF91CF911F910F9185
:10052000FF90EF90DF90CF90BF90AF909F908F9013
:100530000C94350A77FD10C0FC01EA5AFF4F208168
:1005400031816217730744F4442311F020E001C0A5
:1005500021E04CE00C943902089577FD0FC0FC01B6
:10056000EA5AFF4F20813181621773073CF448300B
:10057000510520F4242F4BE00C943902089577FDA7
:100580000FC0FC01EA5AFF4F2081318162177307C7
:100590003CF44031510520F4242F4AE00C943902F8
:1005A0000895DF92EF92FF920F931F93CF93DF9303
:1005B00077FD23C0FC01EA5AFF4F20813181621789
:1005C0007307DCF4EB017C018B0183E0000F111F4A
:1005D0008A95E1F7005F1F4F0E0D1F1DDD24D39498
:1005E000F80111928F0120E04D2DBE01C7010E943C
:1005F0003902D394F9E0DF12F3CFDF91CF911F914D
:100600000F91FF90EF90DF9008956F927F928F92FD
:100610009F92AF92BF92CF92DF92EF92FF920F9391
:100620001F93CF93DF93EC01D62EC72E7C0180E57C
:10063000E80EF11CF701608371833E01F2E56F0E55
:10064000711CF301518340834E01F4E58F0E911C20
:10065000F40131832083C8010197089710F008E066
:1006600010E05E01F6E5AF0EB11CF50111830083C9
:1006700061E08D2D0E94F90961E0F30180810E9403
:10068000F90961E0F40180810E94F90961E0F40157
:1006900080810E94350AF701D082C182FE017096E6
:1006A0001192EE15FF05E1F700E010E0F501808101
:1006B000918108171907F4F420E04FE0B801CE014A
:1006C0000E94390247E050E0B801CE010E94AD021D
:1006D00020E049E0B801CE010E943902B801CE0104
:1006E0000E94D10241E0B801CE010E949A020F5F40
:1006F0001F4FDCCFDF91CF911F910F91FF90EF90B3
:10070000DF90CF90BF90AF909F908F907F906F9031
:10071000089577FD1AC0FC01EA5AFF4F0190F0815D
:10072000E02D6E177F078CF44830510570F4FB0103
:1007300033E0EE0FFF1F3A95E1F7E80FF91FE40FE2
:10074000F51F208B4F5F0C943902089520916102B0
:100750003091620228173907B9F490911F028091F5
:100760002002981789F0E0911F02F0E0EF5DFD4F45
:10077000808120911F0230E02F5F3F4F2F7333277E
:1007800020931F0290E008958FEF9FEF08951F932D
:10079000CF93DF93DC015C968D919C915D970097E0
:1007A00039F421E030E013963C932E9312973BC02E
:1007B0005196ED91FC91529750962C915097322F73
:1007C00030951FB75E964C915E97742F727041FD05
:1007D0006095F8944081772311F0422B01C04323A8
:1007E0004083EC012197F1F748E0508160FF02C09F
:1007F000522B01C053235083EC012197F1F76695EA
:10080000415099F78081772319F08323808302C0B8
:10081000282B20831FBF5C968D919C915D9701973B
:10082000F1F781E090E0DF91CF911F910895209141
:100830006102309162022817390781F490911F02FA
:1008400080912002981751F0E0911F02F0E0EF5DD7
:10085000FD4F8081082E000C990B08958FEF9FEFBC
:10086000089520916102309162022817390771F4CE
:100870008091200220911F0290E0805C9F4F821B9C
:10088000910960E470E00E949E0A089580E090E083
:10089000089520916102309162022817390739F4D6
:1008A0008FB7F8941092200210921F028FBF089504
:1008B000E0916102F0916202E817F90769F4A389F7
:1008C000B4899C918589809589238C9310926202CA
:1008D0001092610281E0089580E00895CF93DF9344
:1008E000EC018A8D9B8D892BF1F0809161029091B2
:1008F0006202C817D907B9F0009711F00E94580496
:100900008E8D8E7F8E8F1092200210921F02D093B8
:100910006202C0936102EB89FC8990818D89892BE9
:10092000808381E001C080E0DF91CF9108951F9224
:100930000F920FB60F9211242F933F934F935F9313
:100940006F937F938F939F93AF93BF93EF93FF9397
:10095000E0916102F0916202309709F451C0968DE6
:10096000A685B785858591FF04C09C91892329F4CC
:1009700047C09C91892309F043C0A389B4899C9105
:100980008589809589238C93868997890197F1F7CA
:10099000608D718DA685B785558538E020E0CB0147
:1009A0000197F1F7822F90E095958795282F4C912C
:1009B000452309F02068315091F7868D81FD2095FF
:1009C0008091200290E001968F73992730911F0249
:1009D000381749F0A0912002B0E0AF5DBD4F2C93D5
:1009E0008093200203C0868D8160868F828D938DD7
:1009F0000197F1F7A389B4899C918589892B8C9300
:100A0000FF91EF91BF91AF919F918F917F916F91E6
:100A10005F914F913F912F910F900FBE0F901F90BC
:100A2000189525E731E0FC01318320830C945804AC
:100A30001F93CF93DF93EC01162F6E8D6695617037
:100A400081E06827812F0E94350A61E0812F0E9492
:100A5000F909812F90E0FC01E458FF4FE491E88B05
:100A6000FC01E057FF4FE491F0E0EE0FFF1FE2556D
:100A7000FF4F859194919A8B898BDF91CF911F9134
:100A800008951F93CF93DF93EC01162F60E0812F21
:100A90000E94F9098E8D81FD04C061E0812F0E94C2
:100AA000350A1C87812F90E0FC01E458FF4FE49148
:100AB000ED87FC01E057FF4FE491F0E0EE0FFF1FE0
:100AC000EC55FF4F859194919F878E87DF91CF9151
:100AD0001F9108951F93CF93DF93EC01162F1B8274
:100AE0001A8288EE93E0A0E0B0E08C839D83AE8311
:100AF000BF8385E791E0998388831F8A1E8A198EB8
:100B0000188E1B8E1A8E1D8E1C8E8E8D8E7F20FB56
:100B100081F98E8F642FCE010E941805612FCE01BE
:100B2000DF91CF911F910C944105CF93DF93EC019E
:100B30009A01AB011B8E1A8E198E188E1F8A1E8A7F
:100B400060E079E08DE390E00E94D40AF90124305E
:100B5000310518F0C901039702C081E090E09D8F34
:100B60008C8F6C85663108F069C0C90196958795B0
:100B70008431910510F0439702C081E090E09F8B93
:100B80008E8B369718F0C901059702C081E090E07E
:100B9000998F888FC901880F991F280F391F3695A3
:100BA0002795369527952D30310518F02C503109B1
:100BB00002C021E030E03B8F2A8F909168006830BE
:100BC00050F021E06E3008F420E081E001C0880F91
:100BD0002A95EAF701C084E0892B809368009C8500
:100BE000983038F09E3040F0963148F020E030E008
:100BF00008C02DE630E005C02BE630E002C02CE650
:100C000030E03C8B2B8B983030F481E001C0880FB2
:100C10009A95EAF70EC0292F30E09E3018F428503C
:100C2000310902C02E50310981E001C0880F2A9598
:100C3000EAF78D8B8C8D9D8D0197F1F7CE01DF91B9
:100C4000CF910C946E04FC01918D228D892F90E040
:100C5000805C9F4F821B91098F7399270895FC0137
:100C6000918D828D981731F0828DE80FF11D858D61
:100C700090E008958FEF9FEF0895FC01918D828D94
:100C8000981761F0828DDF01A80FB11D5D968C91E0
:100C9000928D9F5F9F73928F90E008958FEF9FEFEB
:100CA000089586EA97E0892B49F080E090E0892B4F
:100CB00029F00E94A60781110C9400000895FC0100
:100CC000848DDF01A80FB11DA35ABF4F2C91848DD5
:100CD00090E001968F739927848FA689B7892C930A
:100CE000A089B1898C9180648C93938D848D9813A5
:100CF00006C00288F389E02D80818F7D808308956E
:100D0000EF92FF920F931F93CF93DF93EC0181E05B
:100D1000888F9B8D8C8D981305C0E889F989808117
:100D200085FD24C0F62E0B8D10E00F5F1F4F0F7353
:100D30001127E02E8C8DE8120CC00FB607FCFACFFD
:100D4000E889F989808185FFF5CFCE010E945F0691
:100D5000F1CF8B8DFE01E80FF11DE35AFF4FF082BA
:100D60000B8FEA89FB898081806207C0EE89FF8949
:100D70006083E889F98980818064808381E090E0E4
:100D8000DF91CF911F910F91FF90EF900895CF9336
:100D9000DF93EC01888D8823C9F0EA89FB89808183
:100DA00085FD05C0A889B9898C9186FD0FC00FB655
:100DB00007FCF5CF808185FFF2CFA889B9898C9196
:100DC00085FFEDCFCE010E945F06E7CFDF91CF9187
:100DD0000895CF92DF92EF92FF921F93CF93DF930C
:100DE000EC016A017B01122FE889F98982E0808396
:100DF0004115514E61057105B1F060E079E08DE378
:100E000090E0A70196010E94B20ADA01C901019798
:100E1000A109B109B695A795979587959C012115CC
:100E200080E13807A8F0E889F989108260E874E861
:100E30008EE190E0A70196010E94B20ADA01C90191
:100E40000197A109B109B695A795979587959C013A
:100E5000EC85FD853083EE85FF852083188EEC8937
:100E6000FD891083EA89FB89808180618083EA891A
:100E7000FB89808188608083EA89FB898081806822
:100E80008083EA89FB8980818F7D8083DF91CF9188
:100E90001F91FF90EF90DF90CF9008951F920F92D7
:100EA0000FB60F9211242F938F939F93EF93FF937D
:100EB000E0917302F09174028081E0917902F091E7
:100EC0007A0282FD12C0908180917C028F5F8F73C5
:100ED00020917D02821751F0E0917C02F0E0ED5903
:100EE000FD4F958F80937C0201C08081FF91EF912F
:100EF0009F918F912F910F900FBE0F901F9018957B
:100F00001F920F920FB60F9211242F933F934F937E
:100F10005F936F937F938F939F93AF93BF93EF9361
:100F2000FF9383E692E00E945F06FF91EF91BF91ED
:100F3000AF919F918F917F916F915F914F913F9171
:100F40002F910F900FBE0F901F90189583E692E09F
:100F50000E94230621E0892B09F420E0822F0895C6
:100F6000E3E6F2E01382128288EE93E0A0E0B0E0C4
:100F700084839583A683B78385E891E091838083FA
:100F800085EC90E09587848784EC90E0978786874E
:100F900080EC90E0918B808B81EC90E0938B828B46
:100FA00082EC90E0958B848B86EC90E0978B868B1F
:100FB000118E128E138E148E089508950E94950935
:100FC0000E94DD070E948E00C1E5D6E00E94D60097
:100FD0002097E1F30E945106F9CFCF92DF92EF9272
:100FE000FF920F931F93CF93DF936C01EB017B0173
:100FF000E40EF51E00E010E0CE15DF0561F069910A
:10100000D601ED91FC910190F081E02DC60109958A
:10101000080F191FF1CFC801DF91CF911F910F91D8
:10102000FF90EF90DF90CF9008956115710579F0F2
:10103000FB0101900020E9F73197AF01461B570BE8
:10104000DC01ED91FC910280F381E02D099480E0B8
:1010500090E00895DC01ED91FC910190F081E02D8C
:10106000099461E971E00C9415080F931F93CF93D5
:10107000DF93EC010E9415088C01CE010E9431081B
:10108000800F911FDF91CF911F910F9108950F93C2
:101090001F93CF93DF93EC010E942A088C01CE01AD
:1010A0000E943108800F911FDF91CF911F910F9106
:1010B00008958F929F92AF92BF92CF92DF92EF925C
:1010C000FF920F931F93CF93DF93CDB7DEB7A19716
:1010D0000FB6F894DEBF0FBECDBF6C01142FE52F05
:1010E000CB01022F19A2223008F40AE07E0121E28E
:1010F000E20EF11C802E912CA12CB12C612F7E2FA1
:10110000A50194010E94B20A029F1019112481E0E6
:10111000E81AF1081A3014F4105D01C0195CF701E7
:101120001083122FE32FCA01232B242B252B31F7F9
:10113000B701C6010E941508A1960FB6F894DEBF4C
:101140000FBECDBFDF91CF911F910F91FF90EF9018
:10115000DF90CF90BF90AF909F908F900895CF92E7
:10116000DF92EF92FF920F931F93CF93DF9321159E
:10117000310581F4DC01ED91FC910190F081E02DCD
:10118000642FDF91CF911F910F91FF90EF90DF902F
:10119000CF9009942A30310501F577FF1DC06A010F
:1011A0007B01EC016DE20E942A088C01442755273F
:1011B000BA014C195D096E097F092AE0CE010E942F
:1011C0005908800F911FDF91CF911F910F91FF90D0
:1011D000EF90DF90CF9008952AE0DF91CF911F919B
:1011E0000F91FF90EF90DF90CF900C9459089A01E7
:1011F000AB01770F660B770B0C94AF081F920F9221
:101200000FB60F9211242F933F938F939F93AF9319
:10121000BF938091010390910203A0910303B091C9
:1012200004033091000323E0230F2D3720F40196AF
:10123000A11DB11D05C026E8230F0296A11DB11DF9
:10124000209300038093010390930203A093030370
:10125000B09304038091050390910603A0910703C6
:10126000B09108030196A11DB11D809305039093D1
:101270000603A0930703B0930803BF91AF919F911A
:101280008F913F912F910F900FBE0F901F90189547
:101290003FB7F8948091050390910603A09107034E
:1012A000B091080326B5A89B05C02F3F19F0019601
:1012B000A11DB11D3FBFBA2FA92F982F8827820FDC
:1012C000911DA11DB11DBC01CD0142E0660F771F2C
:1012D000881F991F4A95D1F70895CF92DF92EF9218
:1012E000FF92CF93DF936B017C010E944809EB01D1
:1012F000C114D104E104F10489F00E949D0A0E9406
:1013000048096C1B7D0B683E734090F381E0C81A5E
:10131000D108E108F108C851DC4FEACFDF91CF9145
:10132000FF90EF90DF90CF900895789484B582601D
:1013300084BD84B5816084BD85B5826085BD85B579
:10134000816085BDEEE6F0E0808181608083E1E828
:10135000F0E0108280818260808380818160808360
:10136000E0E8F0E0808181608083E1EBF0E0808163
:1013700084608083E0EBF0E0808181608083EAE735
:10138000F0E08081846080838081826080838081BE
:10139000816080838081806880831092C10008957D
:1013A000833081F028F4813099F08230A1F00895E3
:1013B0008730A9F08830B9F08430D1F48091800072
:1013C0008F7D03C0809180008F7780938000089587
:1013D00084B58F7702C084B58F7D84BD08958091D8
:1013E000B0008F7703C08091B0008F7D8093B000F4
:1013F0000895CF93DF9390E0FC01E458FF4F2491D0
:10140000FC01E057FF4F8491882361F190E0880F41
:10141000991FFC01E854FF4FC591D491FC01E2559E
:10142000FF4FA591B491611109C09FB7F8948881CD
:10143000209582238883EC912E230BC0623061F4C7
:101440009FB7F8948881322F309583238883EC915D
:101450002E2B2C939FBF06C08FB7F894E8812E2BBC
:1014600028838FBFDF91CF9108951F93CF93DF9390
:10147000282F30E0F901E859FF4F8491F901E45831
:10148000FF4FD491F901E057FF4FC491CC23C1F035
:10149000162F81110E94D009EC2FF0E0EE0FFF1FF4
:1014A000E255FF4FA591B4919FB7F894111104C074
:1014B0008C91D095D82302C0EC91DE2BDC939FBF9A
:1014C000DF91CF911F910895BF92CF92DF92EF925B
:1014D000FF920F931F93CF93DF93C82ED62EB42E77
:1014E000C7E0D0E0022F10E087E0E82EF12CB11029
:1014F00005C0C7018C1B9D0BB80102C0B8018C2F21
:1015000002C0759567958A95E2F761708C2D0E94EF
:10151000350A61E08D2D0E94350A60E08D2D0E9414
:10152000350A219720F7DF91CF911F910F91FF90FE
:10153000EF90DF90CF90BF900895089597FB072E0E
:1015400016F4009407D077FD09D00E94F30A07FC37
:1015500005D03EF4909581959F4F089570956195C3
:101560007F4F0895A1E21A2EAA1BBB1BFD010DC0DF
:10157000AA1FBB1FEE1FFF1FA217B307E407F50743
:1015800020F0A21BB30BE40BF50B661F771F881F1F
:10159000991F1A9469F760957095809590959B01B5
:1015A000AC01BD01CF010895052E97FB1EF40094F8
:1015B0000E94EB0A57FD07D00E94B20A07FC03D035
:1015C0004EF40C94EB0A50954095309521953F4F81
:1015D0004F4F5F4F089590958095709561957F4F1F
:1015E0008F4F9F4F0895AA1BBB1B51E107C0AA1F35
:1015F000BB1FA617B70710F0A61BB70B881F991FB4
:101600005A95A9F780959095BC01CD010895EE0FEC
:10161000FF1F0590F491E02D099410E0C3E6D0E09F
:1016200004C0FE010E94070B2196C436D107C9F7FA
:04163000F894FFCF5C
:10163400960030304A004A004A007A004A004800C6
:101644004A00000001000200040008000400020037
:101654000100000080004000200010002000400035
:1016640080000000000000000000000000000000F6
:1016740000000000080014002200410000000000E7
:1016840000000000000000000000000041002200F3
:101694001400080042542069732052656164792162
:1016A4000000000000C703ED073104A60317044936
:1016B40004000000008006ED0723063D062F06C740
:1016C400060D0A006E616E00696E66006F76660034
:0216D4002E00E6
:00000001FF
