:100000000C9464000C948C000C948C000C94FD03F4
:100010000C94FD030C94FD030C948C000C948C0048
:100020000C948C000C948C000C948C000C948C0020
:100030000C948C000C948C000C948C000C948C0010
:100040000C9464080C948C000C94B4060C94E60692
:100050000C948C000C948C000C948C000C948C00F0
:100060000C948C000C948C0000000008000201002D
:100070000003040700000000000000000102040863
:100080001020408001020408102001020408102002
:10009000040404040404040402020202020203032E
:1000A00003030303000000002300260029000000D2
:1000B0000000250028002B0000000000240027007D
:1000C0002A00BA001607D20011241FBECFEFD8E0D5
:1000D000DEBFCDBF11E0A0E0B1E0E0E0F5E102C09D
:1000E00005900D92A237B107D9F722E0A2E7B1E05F
:1000F00001C01D92AA3DB207E1F710E0C3E6D0E0CF
:1001000004C02197FE010E946D0AC136D107C9F7CC
:100110000E9444070C94730A0C94000040E855E2D6
:1001200060E070E081ED91E00E94FB0426E040E891
:1001300055E260E070E084E392E00E944F0663E3E2
:1001400071E084E392E00E949B0740E060E070E091
:1001500089E791E00E94000248E050E060E070E032
:1001600089E791E00E94250260E070E089E791E074
:100170000C9437020F931F9320E049E068E081ED73
:1001800091E00E94D00401E010E02AE030E04BE072
:1001900050E06CE070E089E791E00E946B021F91F3
:1001A0000F91089581ED91E00C94770481ED91E039
:1001B0000E949703892BE9F181ED91E00E9497035A
:1001C000181619063CF481ED91E00E940C0380930F
:1001D0000201F2CF6091020184E392E00E94AD0738
:1001E000809102018B3261F08D3209F5809100011E
:1001F00090910101883E23E0920774F4C29608C0F2
:100200008091000190910101853691052CF0C297F3
:1002100090930101809300016091000170910101B0
:100220004AE050E081ED91E00E945D0802C08093B9
:10023000720180917201813341F0843309F043C02F
:10024000109274011092730121C0109274011092E7
:1002500073014091730150917401483051059CF530
:10026000FA01EE0FFF1FE55EFE4F208160E070E0B7
:1002700089E791E00E94EF028091730190917401EF
:1002800001969093740180937301E3CF40917301C1
:100290005091740148305105B4F4FA01EE0FFF1F7C
:1002A000ED5FFE4F208160E070E089E791E00E9401
:1002B000EF02809173019091740101969093740103
:1002C00080937301E3CF40913101509132015093FB
:1002D000780140937701209103013091040130931C
:1002E000760120937501EBE1F1E0A3E0B1E080E05D
:1002F00090E032978B30910561F066897789718F34
:10030000608F019612966D917C9113976D937D93FA
:10031000F0CF909374018093730150931C0140932C
:100320001B0130931A012093190160910001709113
:100330000101072E000C880B990B0C94D3088F92A7
:100340009F92AF92BF92CF92DF92EF92FF920F9364
:100350001F93CF93DF9300D0CDB7DEB78C014983D5
:100360002A83660F771FF801EA5AFF4FE080F18079
:10037000EE0CFF1CF801CF01801B910B8E159F0521
:1003800014F41192F8CF8981F801E60FF71F8183E9
:100390008A818083680184E5C80ED11C60E0F60183
:1003A00080810E949B094801F2E58F0E911C580143
:1003B00080E5A80EB11C1E141F047CF4E1E0EE1AC7
:1003C000F108F801EE0DFF1D208141E0F40160818C
:1003D000F50180810E94CA09EECF61E0F6018081BB
:1003E0000F900F90DF91CF911F910F91FF90EF90A1
:1003F000DF90CF90BF90AF909F908F900C949B090F
:1004000077FD10C0FC01EA5AFF4F2081318162174D
:10041000730744F4442311F020E001C021E04CE0D4
:100420000C949F01089577FD0FC0FC01EA5AFF4F1D
:1004300020813181621773073CF44830510520F464
:10044000242F4BE00C949F01089577FD0FC0FC0111
:10045000EA5AFF4F20813181621773073CF4403123
:10046000510520F4242F4AE00C949F010895DF9257
:10047000EF92FF920F931F93CF93DF9377FD23C0EB
:10048000FC01EA5AFF4F2081318162177307DCF4C7
:10049000EB017C018B0183E0000F111F8A95E1F7CE
:1004A000005F1F4F0E0D1F1DDD24D394F801119224
:1004B0008F0120E04D2DBE01C7010E949F01D39402
:1004C000F9E0DF12F3CFDF91CF911F910F91FF90F1
:1004D000EF90DF9008956F927F928F929F92AF92EC
:1004E000BF92CF92DF92EF92FF920F931F93CF9321
:1004F000DF93EC01D62EC72E7C0180E5E80EF11CBF
:10050000F701608371833E01F2E56F0E711CF30108
:10051000518340834E01F4E58F0E911CF401318329
:100520002083C8010197089710F008E010E05E01F1
:10053000F6E5AF0EB11CF5011183008361E08D2D4E
:100540000E945F0961E0F30180810E945F0961E020
:10055000F40180810E945F0961E0F40180810E94C2
:100560009B09F701D082C182FE0170961192EE15AF
:10057000FF05E1F700E010E0F501808191810817A7
:100580001907F4F420E04FE0B801CE010E949F016A
:1005900047E050E0B801CE010E94130220E049E09C
:1005A000B801CE010E949F01B801CE010E9437021E
:1005B00041E0B801CE010E9400020F5F1F4FDCCF67
:1005C000DF91CF911F910F91FF90EF90DF90CF902F
:1005D000BF90AF909F908F907F906F90089577FD20
:1005E0001AC0FC01EA5AFF4F0190F081E02D6E170E
:1005F0007F078CF44830510570F4FB0133E0EE0FB7
:10060000FF1F3A95E1F7E80FF91FE40FF51F208B64
:100610004F5F0C949F010895209132023091330274
:1006200028173907B9F49091F0018091F1019817DA
:1006300089F0E091F001F0E0EE50FE4F80812091D2
:10064000F00130E02F5F3F4F2F7333272093F001ED
:1006500090E008958FEF9FEF08951F93CF93DF935E
:10066000DC015C968D919C915D97009739F421E0B7
:1006700030E013963C932E9312973BC05196ED9128
:10068000FC91529750962C915097322F30951FB76E
:100690005E964C915E97742F727041FD6095F89450
:1006A0004081772311F0422B01C043234083EC01AA
:1006B0002197F1F748E0508160FF02C0522B01C042
:1006C00053235083EC012197F1F76695415099F738
:1006D0008081772319F08323808302C0282B208315
:1006E0001FBF5C968D919C915D970197F1F781E01A
:1006F00090E0DF91CF911F910895209132023091C7
:1007000033022817390781F49091F0018091F101AB
:10071000981751F0E091F001F0E0EE50FE4F80812B
:10072000082E000C990B08958FEF9FEF08952091EC
:100730003202309133022817390771F48091F101A8
:100740002091F00190E0805C9F4F821B910960E452
:1007500070E00E94040A089580E090E008952091DE
:100760003202309133022817390739F48FB7F894E1
:100770001092F1011092F0018FBF0895E0913202C2
:10078000F0913302E817F90769F4A389B4899C91C1
:100790008589809589238C931092330210923202BE
:1007A00081E0089580E00895CF93DF93EC018A8D76
:1007B0009B8D892BF1F08091320290913302C81702
:1007C000D907B9F0009711F00E94BE038E8D8E7F7D
:1007D0008E8F1092F1011092F001D0933302C093EA
:1007E0003202EB89FC8990818D89892B808381E09D
:1007F00001C080E0DF91CF9108951F920F920FB654
:100800000F9211242F933F934F935F936F937F9396
:100810008F939F93AF93BF93EF93FF93E091320237
:10082000F0913302309709F451C0968DA685B785B3
:10083000858591FF04C09C91892329F447C09C9130
:10084000892309F043C0A389B4899C918589809547
:1008500089238C93868997890197F1F7608D718D33
:10086000A685B785558538E020E0CB010197F1F7E3
:10087000822F90E095958795282F4C91452309F07C
:100880002068315091F7868D81FD20958091F1018E
:1008900090E001968F7399273091F001381749F055
:1008A000A091F101B0E0AE50BE4F2C938093F101C6
:1008B00003C0868D8160868F828D938D0197F1F7BD
:1008C000A389B4899C918589892B8C93FF91EF91A1
:1008D000BF91AF919F918F917F916F915F914F9158
:1008E0003F912F910F900FBE0F901F90189524E409
:1008F00031E0FC01318320830C94BE031F93CF931E
:10090000DF93EC01162F6E8D6695617081E068278C
:10091000812F0E949B0961E0812F0E945F09812F36
:1009200090E0FC01E458FF4FE491E88BFC01E057B4
:10093000FF4FE491F0E0EE0FFF1FE255FF4F85916E
:1009400094919A8B898BDF91CF911F9108951F937A
:10095000CF93DF93EC01162F60E0812F0E945F0997
:100960008E8D81FD04C061E0812F0E949B091C8750
:10097000812F90E0FC01E458FF4FE491ED87FC01EA
:10098000E057FF4FE491F0E0EE0FFF1FEC55FF4FF3
:10099000859194919F878E87DF91CF911F910895C4
:1009A0001F93CF93DF93EC01162F1B821A8288EEE0
:1009B00093E0A0E0B0E08C839D83AE83BF8384E4AA
:1009C00091E0998388831F8A1E8A198E188E1B8E48
:1009D0001A8E1D8E1C8E8E8D8E7F20FB81F98E8F40
:1009E000642FCE010E947E04612FCE01DF91CF9152
:1009F0001F910C94A704CF93DF93EC019A01AB01F4
:100A00001B8E1A8E198E188E1F8A1E8A60E079E05E
:100A10008DE390E00E943A0AF9012430310518F084
:100A2000C901039702C081E090E09D8F8C8F6C8597
:100A3000663108F069C0C9019695879584319105A2
:100A400010F0439702C081E090E09F8B8E8B369729
:100A500018F0C901059702C081E090E0998F888F56
:100A6000C901880F991F280F391F3695279536958C
:100A700027952D30310518F02C50310902C021E0A6
:100A800030E03B8F2A8F90916800683050F021E071
:100A90006E3008F420E081E001C0880F2A95EAF763
:100AA00001C084E0892B809368009C85983038F0E1
:100AB0009E3040F0963148F020E030E008C02DE64E
:100AC00030E005C02BE630E002C02CE630E03C8B85
:100AD0002B8B983030F481E001C0880F9A95EAF7AB
:100AE0000EC0292F30E09E3018F42850310902C082
:100AF0002E50310981E001C0880F2A95EAF78D8BCD
:100B00008C8D9D8D0197F1F7CE01DF91CF910C94E3
:100B1000D403FC01918D228D892F90E0805C9F4F42
:100B2000821B91098F7399270895FC01918D828D05
:100B3000981731F0828DE80FF11D858D90E00895B2
:100B40008FEF9FEF0895FC01918D828D981761F0D2
:100B5000828DDF01A80FB11D5D968C91928D9F5FF4
:100B60009F73928F90E008958FEF9FEF08958CE030
:100B700097E0892B49F080E090E0892B29F00E94D2
:100B80000C0781110C9400000895FC01848DDF0195
:100B9000A80FB11DA35ABF4F2C91848D90E00196F0
:100BA0008F739927848FA689B7892C93A089B189DF
:100BB0008C9180648C93938D848D981306C00288E9
:100BC000F389E02D80818F7D80830895EF92FF92DD
:100BD0000F931F93CF93DF93EC0181E0888F9B8D60
:100BE0008C8D981305C0E889F989808185FD24C022
:100BF000F62E0B8D10E00F5F1F4F0F731127E02EA5
:100C00008C8DE8120CC00FB607FCFACFE889F98981
:100C1000808185FFF5CFCE010E94C505F1CF8B8D78
:100C2000FE01E80FF11DE35AFF4FF0820B8FEA89B6
:100C3000FB898081806207C0EE89FF896083E88933
:100C4000F98980818064808381E090E0DF91CF9199
:100C50001F910F91FF90EF900895CF93DF93EC01D8
:100C6000888D8823C9F0EA89FB89808185FD05C0CC
:100C7000A889B9898C9186FD0FC00FB607FCF5CF06
:100C8000808185FFF2CFA889B9898C9185FFEDCF4E
:100C9000CE010E94C505E7CFDF91CF910895CF9295
:100CA000DF92EF92FF921F93CF93DF93EC016A01E3
:100CB0007B01122FE889F98982E080834115514E2A
:100CC00061057105B1F060E079E08DE390E0A70186
:100CD00096010E94180ADA01C9010197A109B10918
:100CE000B695A795979587959C01211580E13807C2
:100CF000A8F0E889F989108260E874E88EE190E054
:100D0000A70196010E94180ADA01C9010197A109F9
:100D1000B109B695A795979587959C01EC85FD85BA
:100D20003083EE85FF852083188EEC89FD89108342
:100D3000EA89FB89808180618083EA89FB898081DF
:100D400088608083EA89FB89808180688083EA8962
:100D5000FB8980818F7D8083DF91CF911F91FF90F0
:100D6000EF90DF90CF9008951F920F920FB60F92E1
:100D700011242F938F939F93EF93FF93E09144025D
:100D8000F09145028081E0914A02F0914B0282FD90
:100D900012C0908180914D028F5F8F7320914E021F
:100DA000821751F0E0914D02F0E0EC5CFD4F958F21
:100DB00080934D0201C08081FF91EF919F918F91AF
:100DC0002F910F900FBE0F901F9018951F920F92AA
:100DD0000FB60F9211242F933F934F935F936F930E
:100DE0007F938F939F93AF93BF93EF93FF9384E38E
:100DF00092E00E94C505FF91EF91BF91AF919F9145
:100E00008F917F916F915F914F913F912F910F90B3
:100E10000FBE0F901F90189584E392E00E94890501
:100E200021E0892B09F420E0822F0895E4E3F2E029
:100E30001382128288EE93E0A0E0B0E08483958371
:100E4000A683B78384E591E09183808385EC90E06D
:100E50009587848784EC90E09787868780EC90E084
:100E6000918B808B81EC90E0938B828B82EC90E075
:100E7000958B848B86EC90E0978B868B118E128EEF
:100E8000138E148E089508950E94FB080E94430754
:100E90000E948E00C7EBD5E00E94D6002097E1F3B8
:100EA0000E94B705F9CFCF92DF92EF92FF920F9396
:100EB0001F93CF93DF936C01EB017B01E40EF51ED2
:100EC00000E010E0CE15DF0561F06991D601ED91EB
:100ED000FC910190F081E02DC6010995080F191FC2
:100EE000F1CFC801DF91CF911F910F91FF90EF904B
:100EF000DF90CF9008956115710579F0FB010190A5
:100F00000020E9F73197AF01461B570BDC01ED914B
:100F1000FC910280F381E02D099480E090E0089537
:100F2000DC01ED91FC910190F081E02D099460E6E7
:100F300071E00C947B070F931F93CF93DF93EC0129
:100F40000E947B078C01CE010E949707800F911FA2
:100F5000DF91CF911F910F9108950F931F93CF931E
:100F6000DF93EC010E9490078C01CE010E9497074D
:100F7000800F911FDF91CF911F910F9108958F9254
:100F80009F92AF92BF92CF92DF92EF92FF920F9318
:100F90001F93CF93DF93CDB7DEB7A1970FB6F89429
:100FA000DEBF0FBECDBF6C01142FE52FCB01022F8A
:100FB00019A2223008F40AE07E0121E2E20EF11CBF
:100FC000802E912CA12CB12C612F7E2FA501940194
:100FD0000E94180A029F1019112481E0E81AF108F2
:100FE0001A3014F4105D01C0195CF7011083122F40
:100FF000E32FCA01232B242B252B31F7B701C60180
:101000000E947B07A1960FB6F894DEBF0FBECDBF3E
:10101000DF91CF911F910F91FF90EF90DF90CF90D4
:10102000BF90AF909F908F900895CF92DF92EF92F4
:10103000FF920F931F93CF93DF932115310581F416
:10104000DC01ED91FC910190F081E02D642FDF91A6
:10105000CF911F910F91FF90EF90DF90CF90099467
:101060002A30310501F577FF1DC06A017B01EC01D3
:101070006DE20E9490078C0144275527BA014C1954
:101080005D096E097F092AE0CE010E94BF07800F2B
:10109000911FDF91CF911F910F91FF90EF90DF9003
:1010A000CF9008952AE0DF91CF911F910F91FF908B
:1010B000EF90DF90CF900C94BF079A01AB01770FB0
:1010C000660B770B0C9415081F920F920FB60F92B8
:1010D00011242F933F938F939F93AF93BF9380914E
:1010E000D2029091D302A091D402B091D502309156
:1010F000D10223E0230F2D3720F40196A11DB11D4D
:1011000005C026E8230F0296A11DB11D2093D10230
:101110008093D2029093D302A093D402B093D502CD
:101120008091D6029091D702A091D802B091D902B5
:101130000196A11DB11D8093D6029093D702A09372
:10114000D802B093D902BF91AF919F918F913F91F7
:101150002F910F900FBE0F901F9018953FB7F894E6
:101160008091D6029091D702A091D802B091D90275
:1011700026B5A89B05C02F3F19F00196A11DB11DF2
:101180003FBFBA2FA92F982F8827820F911DA11D2D
:10119000B11DBC01CD0142E0660F771F881F991F6A
:1011A0004A95D1F70895CF92DF92EF92FF92CF93B5
:1011B000DF936B017C010E94AE08EB01C114D104E6
:1011C000E104F10489F00E94030A0E94AE086C1B3E
:1011D0007D0B683E734090F381E0C81AD108E108A6
:1011E000F108C851DC4FEACFDF91CF91FF90EF902B
:1011F000DF90CF900895789484B5826084BD84B5E3
:10120000816084BD85B5826085BD85B5816085BD01
:10121000EEE6F0E0808181608083E1E8F0E010821A
:10122000808182608083808181608083E0E8F0E05B
:10123000808181608083E1EBF0E080818460808345
:10124000E0EBF0E0808181608083EAE7F0E080817C
:1012500084608083808182608083808181608083DC
:101260008081806880831092C1000895833081F06E
:1012700028F4813099F08230A1F008958730A9F0E8
:101280008830B9F08430D1F4809180008F7D03C024
:10129000809180008F7780938000089584B58F7748
:1012A00002C084B58F7D84BD08958091B0008F7792
:1012B00003C08091B0008F7D8093B0000895CF93DC
:1012C000DF9390E0FC01E458FF4F2491FC01E057CC
:1012D000FF4F8491882361F190E0880F991FFC01F2
:1012E000E854FF4FC591D491FC01E255FF4FA59101
:1012F000B491611109C09FB7F89488812095822329
:101300008883EC912E230BC0623061F49FB7F89470
:101310008881322F309583238883EC912E2B2C9358
:101320009FBF06C08FB7F894E8812E2B28838FBF0C
:10133000DF91CF9108951F93CF93DF93282F30E053
:10134000F901E859FF4F8491F901E458FF4FD49116
:10135000F901E057FF4FC491CC23C1F0162F811142
:101360000E943609EC2FF0E0EE0FFF1FE255FF4F11
:10137000A591B4919FB7F894111104C08C91D095A8
:10138000D82302C0EC91DE2BDC939FBFDF91CF917D
:101390001F910895BF92CF92DF92EF92FF920F9329
:1013A0001F93CF93DF93C82ED62EB42EC7E0D0E084
:1013B000022F10E087E0E82EF12CB11005C0C70124
:1013C0008C1B9D0BB80102C0B8018C2F02C0759513
:1013D00067958A95E2F761708C2D0E949B0961E008
:1013E0008D2D0E949B0960E08D2D0E949B09219705
:1013F00020F7DF91CF911F910F91FF90EF90DF9039
:10140000CF90BF900895089597FB072E16F400948F
:1014100007D077FD09D00E94590A07FC05D03EF499
:10142000909581959F4F0895709561957F4F089590
:10143000A1E21A2EAA1BBB1BFD010DC0AA1FBB1FD8
:10144000EE1FFF1FA217B307E407F50720F0A21B4A
:10145000B30BE40BF50B661F771F881F991F1A94B7
:1014600069F760957095809590959B01AC01BD01E1
:10147000CF010895052E97FB1EF400940E94510A97
:1014800057FD07D00E94180A07FC03D04EF40C94B5
:10149000510A50954095309521953F4F4F4F5F4FE2
:1014A000089590958095709561957F4F8F4F9F4FD0
:1014B0000895AA1BBB1B51E107C0AA1FBB1FA6179B
:1014C000B70710F0A61BB70B881F991F5A95A9F7ED
:1014D00080959095BC01CD010895EE0FFF1F0590FA
:1014E000F491E02D099410E0C3E6D0E004C0FE01C1
:1014F0000E946D0A2196C436D107C9F7F894FFCF30
:101500006400300000000000000000000000000047
:10151000000000080014002200410000000000004C
:101520000000000000000000000000410022001444
:1015300000080042542069732052656164792100DB
:10154000000000002D03530797030C037D03AF0336
:1015500000000000E60553078905A30595052D0643
:101560000D0A006E616E00696E66006F7666002E71
:02157000000079
:00000001FF
