:100000000C945D000C9485000C9485000C94850084
:100010000C9485000C9485000C9485000C9485004C
:100020000C9485000C9485000C9485000C9485003C
:100030000C9485000C9485000C9485000C9485002C
:100040000C94DD020C9485000C9485000C948500C2
:100050000C9485000C9485000C9485000C9485000C
:100060000C9485000C94850000000008000201003B
:100070000003040700000000000000000102040863
:100080001020408001020408102001020408102002
:10009000040404040404040402020202020203032E
:1000A0000303030300000000250028002B000000CC
:1000B0000000240027002A004F0111241FBECFEFAB
:1000C000D8E0DEBFCDBF11E0A0E0B1E0EAE0F9E0AA
:1000D00002C005900D92A033B107D9F721E0A0E34B
:1000E000B1E001C01D92A939B207E1F710E0CDE5FA
:1000F000D0E004C02197FE010E947D04CC35D107D9
:10010000C9F70E94CE020C9483040C94000040E0D6
:1001100060E070E088E391E00E94C10148E050E0B7
:1001200060E070E088E391E00E94E60160E070E04A
:1001300088E391E00C94F8011092310110923001A3
:1001400080913001909131010C970CF04FC01092CA
:100150003301109232014091320150913301483005
:100160005105B4F4FA01EE0FFF1FE85EFE4F208147
:1001700060E070E088E391E00E94B002809132017B
:100180009091330101969093330180933201E3CF34
:1001900020912E0130912F013093370120933601A9
:1001A000ECE2F1E08AE090E04081518153834283A8
:1001B000019732978F3F4FEF9407B1F79093330138
:1001C00080933201309319012093180164E670E0A6
:1001D00080E090E00E944C038091300190913101C9
:1001E00001969093310180933001AACF1092310192
:1001F0001092300180913001909131010C970CF0F8
:100200004DC0109233011092320140913201509151
:10021000330148305105B4F4FA01EE0FFF1FE050EE
:10022000FF4F208160E070E088E391E00E94B0021F
:100230008091320190913301019690933301809324
:100240003201E3CF2091000130910101309335015B
:1002500020933401E0E0F1E080E090E001964281FB
:100260005381419351938B309105C1F790933301A2
:1002700080933201309317012093160164E670E0F9
:1002800080E090E00E944C03809130019091310118
:1002900001969093310180933001ACCF08950F9374
:1002A0001F9301E010E02AE030E04BE050E06CE00A
:1002B00070E088E391E00E942C021F910F91089555
:1002C0008F929F92AF92BF92CF92DF92EF92FF9266
:1002D0000F931F93CF93DF9300D0CDB7DEB78C0180
:1002E00049832A83660F771FF801EA5AFF4FE0809F
:1002F000F180EE0CFF1CF801CF01801B910B8E15D5
:100300009F0514F41192F8CF8981F801E60FF71FC9
:1003100081838A818083680184E5C80ED11C60E0F6
:10032000F60180810E9414044801F2E58F0E911CB1
:10033000580180E5A80EB11C1E141F047CF4E1E0F6
:10034000EE1AF108F801EE0DFF1D208141E0F401E5
:100350006081F50180810E944304EECF61E0F601E7
:1003600080810F900F90DF91CF911F910F91FF909F
:10037000EF90DF90CF90BF90AF909F908F900C94B4
:10038000140477FD10C0FC01EA5AFF4F208131812F
:100390006217730744F4442311F020E001C021E008
:1003A0004CE00C946001089577FD0FC0FC01EA5AFF
:1003B000FF4F20813181621773073CF448305105AB
:1003C00020F4242F4BE00C946001089577FD0FC0BA
:1003D000FC01EA5AFF4F20813181621773073CF418
:1003E0004031510520F4242F4AE00C946001089517
:1003F000DF92EF92FF920F931F93CF93DF9377FDDE
:1004000023C0FC01EA5AFF4F208131816217730734
:10041000DCF4EB017C018B0183E0000F111F8A9556
:10042000E1F7005F1F4F0E0D1F1DDD24D394F8016F
:1004300011928F0120E04D2DBE01C7010E94600185
:10044000D394F9E0DF12F3CFDF91CF911F910F9199
:10045000FF90EF90DF9008956F927F928F929F921E
:10046000AF92BF92CF92DF92EF92FF920F931F93C2
:10047000CF93DF93EC01D62EC72E7C0180E5E80EEA
:10048000F11CF701608371833E01F2E56F0E711C70
:10049000F301518340834E01F4E58F0E911CF4016A
:1004A00031832083C8010197089710F008E010E01D
:1004B0005E01F6E5AF0EB11CF5011183008361E02A
:1004C0008D2D0E94D80361E0F30180810E94D80342
:1004D00061E0F40180810E94D80361E0F401808131
:1004E0000E941404F701D082C182FE01709611921D
:1004F000EE15FF05E1F700E010E0F5018081918144
:1005000008171907F4F420E04FE0B801CE010E946B
:10051000600147E050E0B801CE010E94D40120E024
:1005200049E0B801CE010E946001B801CE010E94ED
:10053000F80141E0B801CE010E94C1010F5F1F4FD9
:10054000DCCFDF91CF911F910F91FF90EF90DF9063
:10055000CF90BF90AF909F908F907F906F900895B5
:1005600077FD1AC0FC01EA5AFF4F0190F081E02D9F
:100570006E177F078CF44830510570F4FB0133E0AF
:10058000EE0FFF1F3A95E1F7E80FF91FE40FF51F93
:10059000208B4F5F0C946001089508950E947403AE
:1005A0000E94CD020E948700C0E0D0E00E949C0023
:1005B0002097E1F30E940000F9CF1F920F920FB62F
:1005C0000F9211242F933F938F939F93AF93BF93D9
:1005D0008091910190919201A0919301B091940129
:1005E0003091900123E0230F2D3720F40196A11DB7
:1005F000B11D05C026E8230F0296A11DB11D209351
:1006000090018093910190939201A0939301B093F4
:1006100094018091950190919601A0919701B091DC
:1006200098010196A11DB11D8093950190939601AB
:10063000A0939701B0939801BF91AF919F918F9133
:100640003F912F910F900FBE0F901F9018953FB7BD
:10065000F8948091950190919601A0919701B091A5
:10066000980126B5A89B05C02F3F19F00196A11D42
:10067000B11D3FBFBA2FA92F982F8827820F911D38
:10068000A11DB11DBC01CD0142E0660F771F881F7F
:10069000991F4A95D1F70895CF92DF92EF92FF927A
:1006A000CF93DF936B017C010E942703EB01C11400
:1006B000D104E104F10489F00E947C040E94270324
:1006C0006C1B7D0B683E734090F381E0C81AD10823
:1006D000E108F108C851DC4FEACFDF91CF91FF90DC
:1006E000EF90DF90CF900895789484B5826084BDB8
:1006F00084B5816084BD85B5826085BD85B5816026
:1007000085BDEEE6F0E0808181608083E1E8F0E085
:100710001082808182608083808181608083E0E8B4
:10072000F0E0808181608083E1EBF0E08081846093
:100730008083E0EBF0E0808181608083EAE7F0E095
:1007400080818460808380818260808380818160F9
:1007500080838081806880831092C10008958330F7
:1007600081F028F4813099F08230A1F0089587302B
:10077000A9F08830B9F08430D1F4809180008F7D69
:1007800003C0809180008F7780938000089584B5A6
:100790008F7702C084B58F7D84BD08958091B000AD
:1007A0008F7703C08091B0008F7D8093B000089553
:1007B000CF93DF9390E0FC01E458FF4F2491FC01BC
:1007C000E057FF4F8491882361F190E0880F991FD3
:1007D000FC01E255FF4FC591D491FC01EC55FF4F50
:1007E000A591B491611109C09FB7F89488812095B3
:1007F00082238883EC912E230BC0623061F49FB773
:10080000F8948881322F309583238883EC912E2BA6
:100810002C939FBF06C08FB7F894E8812E2B2883B6
:100820008FBFDF91CF9108951F93CF93DF93282F30
:1008300030E0F901E859FF4F8491F901E458FF4F86
:10084000D491F901E057FF4FC491CC23C1F0162F8A
:1008500081110E94AF03EC2FF0E0EE0FFF1FEC556B
:10086000FF4FA591B4919FB7F894111104C08C91DA
:10087000D095D82302C0EC91DE2BDC939FBFDF9193
:10088000CF911F910895BF92CF92DF92EF92FF9286
:100890000F931F93CF93DF93C82ED62EB42EC7E0AD
:1008A000D0E0022F10E087E0E82EF12CB11005C057
:1008B000C7018C1B9D0BB80102C0B8018C2F02C070
:1008C000759567958A95E2F761708C2D0E941404E6
:1008D00061E08D2D0E94140460E08D2D0E941404AF
:1008E000219720F7DF91CF911F910F91FF90EF900B
:1008F000DF90CF90BF9008950895EE0FFF1F0590F1
:0A090000F491E02D0994F894FFCF64
:10090A0000000000000000000000000000000000DD
:10091A00080014002200410000000000000000004E
:10092A00000000000000000041002200140008003E
:00000001FF
