:100000000C9464000C948C000C948C000C94BC0137
:100010000C94BC010C94BC010C948C000C948C00CE
:100020000C948C000C948C000C948C000C948C0020
:100030000C948C000C948C000C948C000C948C0010
:100040000C947E050C948C000C9473040C94A50401
:100050000C948C000C948C000C948C000C948C00F0
:100060000C948C000C948C0000000008000201002D
:100070000003040700000000000000000102040863
:100080001020408001020408102001020408102002
:10009000040404040404040402020202020203032E
:1000A00003030303000000002300260029000000D2
:1000B0000000250028002B0000000000240027007D
:1000C0002A00A500D504AC0011241FBECFEFD8E054
:1000D000DEBFCDBF11E0A0E0B1E0E6E2FEE002C08D
:1000E00005900D92AE33B107D9F722E0AEE3B1E04F
:1000F00001C01D92A834B207E1F710E0C3E6D0E0DA
:1001000004C02197FE010E940007C136D107C9F73C
:100110000E9403050C9406070C94000040E855E289
:1001200060E070E08FE391E00E94BA0226E040E8D0
:1001300055E260E070E082EA91E00E940E0460E027
:1001400071E082EA91E00C945A0520E049E068E011
:100150008FE391E00C948F028FE391E00C943602D0
:100160008FE391E00E945601892BA1F08FE391E08B
:100170000E945601181619063CF48FE391E00E9484
:10018000CB0080933E01F2CF60913E0182EA91E084
:100190000C946C0508952091A0013091A1012817BD
:1001A0003907B9F490915E0180915F01981789F049
:1001B000E0915E01F0E0E05AFE4F808120915E0107
:1001C00030E02F5F3F4F2F73332720935E0190E085
:1001D00008958FEF9FEF08951F93CF93DF93DC0176
:1001E0005C968D919C915D97009739F421E030E009
:1001F00013963C932E9312973BC05196ED91FC9130
:10020000529750962C915097322F30951FB75E968B
:100210004C915E97742F727041FD6095F894408107
:10022000772311F0422B01C043234083EC01219737
:10023000F1F748E0508160FF02C0522B01C0532308
:100240005083EC012197F1F76695415099F7808131
:10025000772319F08323808302C0282B20831FBFBC
:100260005C968D919C915D970197F1F781E090E00C
:10027000DF91CF911F9108952091A0013091A101AC
:100280002817390781F490915E0180915F019817DA
:1002900051F0E0915E01F0E0E05AFE4F8081082EBF
:1002A000000C990B08958FEF9FEF08952091A00106
:1002B0003091A1012817390771F480915F012091D5
:1002C0005E0190E0805C9F4F821B910960E470E0CA
:1002D0000E949706089580E090E008952091A00183
:1002E0003091A1012817390739F48FB7F89410928B
:1002F0005F0110925E018FBF0895E091A001F0911F
:10030000A101E817F90769F4A389B4899C9185894B
:10031000809589238C931092A1011092A00181E015
:10032000089580E00895CF93DF93EC018A8D9B8D33
:10033000892BF1F08091A0019091A101C817D907F4
:10034000B9F0009711F00E947D018E8D8E7F8E8F07
:1003500010925F0110925E01D093A101C093A001A1
:10036000EB89FC8990818D89892B808381E001C094
:1003700080E0DF91CF9108951F920F920FB60F92F8
:1003800011242F933F934F935F936F937F938F939A
:100390009F93AF93BF93EF93FF93E091A001F091F0
:1003A000A101309709F451C0968DA685B785858542
:1003B00091FF04C09C91892329F447C09C91892313
:1003C00009F043C0A389B4899C91858980958923CC
:1003D0008C93868997890197F1F7608D718DA68539
:1003E000B785558538E020E0CB010197F1F7822FE2
:1003F00090E095958795282F4C91452309F020682A
:10040000315091F7868D81FD209580915F0190E0BC
:1004100001968F73992730915E01381749F0A091AA
:100420005F01B0E0A05ABE4F2C9380935F0103C0E0
:10043000868D8160868F828D938D0197F1F7A389D8
:10044000B4899C918589892B8C93FF91EF91BF9101
:10045000AF919F918F917F916F915F914F913F915C
:100460002F910F900FBE0F901F90189521E131E052
:10047000FC01318320830C947D011F93CF93DF9384
:10048000EC01162F6E8D6695617081E06827812FD3
:100490000E94680661E0812F0E942C06812F90E067
:1004A000FC01E458FF4FE491E88BFC01E057FF4F5B
:1004B000E491F0E0EE0FFF1FE255FF4F859194911C
:1004C0009A8B898BDF91CF911F9108951F93CF93C2
:1004D000DF93EC01162F60E0812F0E942C068E8D99
:1004E00081FD04C061E0812F0E9468061C87812F76
:1004F00090E0FC01E458FF4FE491ED87FC01E057E8
:10050000FF4FE491F0E0EE0FFF1FEC55FF4F859198
:1005100094919F878E87DF91CF911F9108951F93AC
:10052000CF93DF93EC01162F1B821A8288EE93E0A3
:10053000A0E0B0E08C839D83AE83BF8381E191E036
:10054000998388831F8A1E8A198E188E1B8E1A8E95
:100550001D8E1C8E8E8D8E7F20FB81F98E8F642FD9
:10056000CE010E943D02612FCE01DF91CF911F91FC
:100570000C946602CF93DF93EC019A01AB011B8EC2
:100580001A8E198E188E1F8A1E8A60E079E08DE31C
:1005900090E00E94CD06F9012430310518F0C90120
:1005A000039702C081E090E09D8F8C8F6C8566314F
:1005B00008F069C0C901969587958431910510F0BE
:1005C000439702C081E090E09F8B8E8B369718F0A6
:1005D000C901059702C081E090E0998F888FC90119
:1005E000880F991F280F391F36952795369527951F
:1005F0002D30310518F02C50310902C021E030E0D7
:100600003B8F2A8F90916800683050F021E06E3067
:1006100008F420E081E001C0880F2A95EAF701C0C4
:1006200084E0892B809368009C85983038F09E3058
:1006300040F0963148F020E030E008C02DE630E090
:1006400005C02BE630E002C02CE630E03C8B2B8B63
:10065000983030F481E001C0880F9A95EAF70EC017
:10066000292F30E09E3018F42850310902C02E5056
:10067000310981E001C0880F2A95EAF78D8B8C8DB6
:100680009D8D0197F1F7CE01DF91CF910C949301ED
:10069000FC01918D228D892F90E0805C9F4F821B01
:1006A00091098F7399270895FC01918D828D981778
:1006B00031F0828DE80FF11D858D90E008958FEF68
:1006C0009FEF0895FC01918D828D981761F0828DC6
:1006D000DF01A80FB11D5D968C91928D9F5F9F7376
:1006E000928F90E008958FEF9FEF08958BEC94E048
:1006F000892B49F080E090E0892B29F00E94CB04FF
:1007000081110C9400000895FC01848DDF01A80F75
:10071000B11DA35ABF4F2C91848D90E001968F7329
:100720009927848FA689B7892C93A089B1898C9148
:1007300080648C93938D848D981306C00288F3890E
:10074000E02D80818F7D80830895EF92FF920F933B
:100750001F93CF93DF93EC0181E0888F9B8D8C8D6D
:10076000981305C0E889F989808185FD24C0F62E9B
:100770000B8D10E00F5F1F4F0F731127E02E8C8D34
:10078000E8120CC00FB607FCFACFE889F98980811E
:1007900085FFF5CFCE010E948403F1CF8B8DFE0142
:1007A000E80FF11DE35AFF4FF0820B8FEA89FB89B6
:1007B0008081806207C0EE89FF896083E889F989BA
:1007C00080818064808381E090E0DF91CF911F91F0
:1007D0000F91FF90EF900895CF93DF93EC01888DF8
:1007E0008823C9F0EA89FB89808185FD05C0A88935
:1007F000B9898C9186FD0FC00FB607FCF5CF8081BB
:1008000085FFF2CFA889B9898C9185FFEDCFCE0104
:100810000E948403E7CFDF91CF910895CF92DF92BA
:10082000EF92FF921F93CF93DF93EC016A017B015C
:10083000122FE889F98982E080834115514E6105C4
:100840007105B1F060E079E08DE390E0A7019601D9
:100850000E94AB06DA01C9010197A109B109B69559
:10086000A795979587959C01211580E13807A8F0F9
:10087000E889F989108260E874E88EE190E0A701C8
:1008800096010E94AB06DA01C9010197A109B109DD
:10089000B695A795979587959C01EC85FD85308346
:1008A000EE85FF852083188EEC89FD891083EA8907
:1008B000FB89808180618083EA89FB8980818860EF
:1008C0008083EA89FB89808180688083EA89FB894B
:1008D00080818F7D8083DF91CF911F91FF90EF907A
:1008E000DF90CF9008951F920F920FB60F921124B0
:1008F0002F938F939F93EF93FF93E091B201F09129
:10090000B3018081E091B801F091B90182FD12C07C
:1009100090818091BB018F5F8F732091BC01821702
:1009200051F0E091BB01F0E0EE55FE4F958F8093C2
:10093000BB0101C08081FF91EF919F918F912F9119
:100940000F900FBE0F901F9018951F920F920FB629
:100950000F9211242F933F934F935F936F937F9345
:100960008F939F93AF93BF93EF93FF9382EA91E0AE
:100970000E948403FF91EF91BF91AF919F918F915E
:100980007F916F915F914F913F912F910F900FBE8B
:100990000F901F90189582EA91E00E94480321E091
:1009A000892B09F420E0822F0895E2EAF1E0138216
:1009B000128288EE93E0A0E0B0E084839583A68362
:1009C000B78381E291E09183808385EC90E0958705
:1009D000848784EC90E09787868780EC90E0918B09
:1009E000808B81EC90E0938B828B82EC90E0958BF6
:1009F000848B86EC90E0978B868B118E128E138EF3
:100A0000148E089508950E94C8050E9402050E9450
:100A10008E00C6E7D3E00E94B0002097E1F30E9469
:100A20007603F9CFCF92DF92EF92FF920F931F934D
:100A3000CF93DF936C01EB017B01E40EF51E00E028
:100A400010E0CE15DF0561F06991D601ED91FC91C2
:100A50000190F081E02DC6010995080F191FF1CF13
:100A6000C801DF91CF911F910F91FF90EF90DF9020
:100A7000CF9008956115710579F0FB010190002078
:100A8000E9F73197AF01461B570BDC01ED91FC9163
:100A90000280F381E02D099480E090E00895DC016C
:100AA000ED91FC910190F081E02D09946DE271E0EF
:100AB0000C943A050F931F93CF93DF93EC010E94A0
:100AC0003A058C01CE010E945605800F911FDF91DF
:100AD000CF911F910F9108950F931F93CF93DF93A1
:100AE000EC010E944F058C01CE010E945605800F3B
:100AF000911FDF91CF911F910F9108951F920F9237
:100B00000FB60F9211242F933F938F939F93AF9320
:100B1000BF938091400290914102A0914202B09116
:100B2000430230913F0223E0230F2D3720F401963A
:100B3000A11DB11D05C026E8230F0296A11DB11D00
:100B400020933F028093400290934102A09342027F
:100B5000B09343028091440290914502A0914602D5
:100B6000B09147020196A11DB11D8093440290935C
:100B70004502A0934602B0934702BF91AF919F9167
:100B80008F913F912F910F900FBE0F901F9018954E
:100B9000789484B5826084BD84B5816084BD85B558
:100BA000826085BD85B5816085BDEEE6F0E080811F
:100BB00081608083E1E8F0E0108280818260808340
:100BC000808181608083E0E8F0E0808181608083C3
:100BD000E1EBF0E0808184608083E0EBF0E08081F5
:100BE00081608083EAE7F0E0808184608083808197
:100BF000826080838081816080838081806880833F
:100C00001092C1000895833081F028F4813099F06A
:100C10008230A1F008958730A9F08830B9F084308F
:100C2000D1F4809180008F7D03C0809180008F7708
:100C300080938000089584B58F7702C084B58F7D3E
:100C400084BD08958091B0008F7703C08091B0007B
:100C50008F7D8093B0000895CF93DF9390E0FC01E7
:100C6000E458FF4F2491FC01E057FF4F8491882303
:100C700061F190E0880F991FFC01E854FF4FC59186
:100C8000D491FC01E255FF4FA591B491611109C0C7
:100C90009FB7F8948881209582238883EC912E2336
:100CA0000BC0623061F49FB7F8948881322F309581
:100CB00083238883EC912E2B2C939FBF06C08FB784
:100CC000F894E8812E2B28838FBFDF91CF91089570
:100CD0001F93CF93DF93282F30E0F901E859FF4F9E
:100CE0008491F901E458FF4FD491F901E057FF4F87
:100CF000C491CC23C1F0162F81110E940306EC2F62
:100D0000F0E0EE0FFF1FE255FF4FA591B4919FB7A2
:100D1000F894111104C08C91D095D82302C0EC91A5
:100D2000DE2BDC939FBFDF91CF911F91089597FB3E
:100D3000072E16F4009407D077FD09D00E94EC0628
:100D400007FC05D03EF4909581959F4F08957095CE
:100D500061957F4F0895A1E21A2EAA1BBB1BFD01CE
:100D60000DC0AA1FBB1FEE1FFF1FA217B307E4078A
:100D7000F50720F0A21BB30BE40BF50B661F771FE2
:100D8000881F991F1A9469F76095709580959095C2
:100D90009B01AC01BD01CF010895052E97FB1EF408
:100DA00000940E94E40657FD07D00E94AB0607FCA2
:100DB00003D04EF40C94E40650954095309521955F
:100DC0003F4F4F4F5F4F0895909580957095619577
:100DD0007F4F8F4F9F4F0895AA1BBB1B51E107C048
:100DE000AA1FBB1FA617B70710F0A61BB70B881FBB
:100DF000991F5A95A9F780959095BC01CD0108954A
:100E0000EE0FFF1F0590F491E02D099410E0C3E66A
:100E1000D0E004C0FE010E9400072196C436D1072D
:060E2000C9F7F894FFCFB2
:100E260042542069732052656164792100000000F4
:100E360000EC0012055601CB003C016E01000000DB
:100E460000A5031205480362035403EC030D0A00D0
:0E0E56006E616E00696E66006F7666002E009B
:00000001FF
