:100000000C9464000C948C000C948C000C94C4012F
:100010000C94C4010C94C4010C948C000C948C00BE
:100020000C948C000C948C000C948C000C948C0020
:100030000C948C000C948C000C948C000C948C0010
:100040000C9474050C948C000C947B040C94AD04FB
:100050000C948C000C948C000C948C000C948C00F0
:100060000C948C000C948C0000000008000201002D
:100070000003040700000000000000000102040863
:100080001020408001020408102001020408102002
:10009000040404040404040402020202020203032E
:1000A00003030303000000002300260029000000D2
:1000B0000000250028002B0000000000240027007D
:1000C0002A00A500DD04AC0011241FBECFEFD8E04C
:1000D000DEBFCDBF11E0A0E0B1E0E2E1FEE002C092
:1000E00005900D92AE33B107D9F722E0AEE3B1E04F
:1000F00001C01D92A934B207E1F710E0C3E6D0E0D9
:1001000004C02197FE010E94F606C136D107C9F747
:100110000E940B050C94FC060C94000040E056E98C
:1001200060E070E080E491E00E94C20226E040E8D6
:1001300055E260E070E083EA91E00E94160460E01E
:1001400071E083EA91E00C94620520E049E068E008
:1001500080E491E00C94970280E491E00C943E02DC
:1001600080E491E00E945E01892B59F080E491E0E7
:100170000E94D30080933F01682F83EA91E00E94A0
:10018000570583EA91E00E945003892B59F083EAD6
:1001900091E00E946A0380933E01682F80E491E021
:1001A0000C94570508952091A1013091A2012817C0
:1001B0003907B9F490915F0180916001981789F037
:1001C000E0915F01F0E0EF59FE4F808120915F01E7
:1001D00030E02F5F3F4F2F73332720935F0190E074
:1001E00008958FEF9FEF08951F93CF93DF93DC0166
:1001F0005C968D919C915D97009739F421E030E0F9
:1002000013963C932E9312973BC05196ED91FC911F
:10021000529750962C915097322F30951FB75E967B
:100220004C915E97742F727041FD6095F8944081F7
:10023000772311F0422B01C043234083EC01219727
:10024000F1F748E0508160FF02C0522B01C05323F8
:100250005083EC012197F1F76695415099F7808121
:10026000772319F08323808302C0282B20831FBFAC
:100270005C968D919C915D970197F1F781E090E0FC
:10028000DF91CF911F9108952091A1013091A2019A
:100290002817390781F490915F01809160019817C8
:1002A00051F0E0915F01F0E0EF59FE4F8081082EA0
:1002B000000C990B08958FEF9FEF08952091A101F5
:1002C0003091A2012817390771F4809160012091C3
:1002D0005F0190E0805C9F4F821B910960E470E0B9
:1002E0000E948D06089580E090E008952091A1017C
:1002F0003091A2012817390739F48FB7F89410927A
:10030000600110925F018FBF0895E091A101F0910B
:10031000A201E817F90769F4A389B4899C9185893A
:10032000809589238C931092A2011092A10181E003
:10033000089580E00895CF93DF93EC018A8D9B8D23
:10034000892BF1F08091A1019091A201C817D907E2
:10035000B9F0009711F00E9485018E8D8E7F8E8FEF
:100360001092600110925F01D093A201C093A1018D
:10037000EB89FC8990818D89892B808381E001C084
:1003800080E0DF91CF9108951F920F920FB60F92E8
:1003900011242F933F934F935F936F937F938F938A
:1003A0009F93AF93BF93EF93FF93E091A101F091DF
:1003B000A201309709F451C0968DA685B785858531
:1003C00091FF04C09C91892329F447C09C91892303
:1003D00009F043C0A389B4899C91858980958923BC
:1003E0008C93868997890197F1F7608D718DA68529
:1003F000B785558538E020E0CB010197F1F7822FD2
:1004000090E095958795282F4C91452309F0206819
:10041000315091F7868D81FD20958091600190E0AB
:1004200001968F73992730915F01381749F0A09199
:100430006001B0E0AF59BE4F2C938093600103C0C0
:10044000868D8160868F828D938D0197F1F7A389C8
:10045000B4899C918589892B8C93FF91EF91BF91F1
:10046000AF919F918F917F916F915F914F913F914C
:100470002F910F900FBE0F901F90189521E131E042
:10048000FC01318320830C9485011F93CF93DF936C
:10049000EC01162F6E8D6695617081E06827812FC3
:1004A0000E945E0661E0812F0E942206812F90E06B
:1004B000FC01E458FF4FE491E88BFC01E057FF4F4B
:1004C000E491F0E0EE0FFF1FE255FF4F859194910C
:1004D0009A8B898BDF91CF911F9108951F93CF93B2
:1004E000DF93EC01162F60E0812F0E9422068E8D93
:1004F00081FD04C061E0812F0E945E061C87812F70
:1005000090E0FC01E458FF4FE491ED87FC01E057D7
:10051000FF4FE491F0E0EE0FFF1FEC55FF4F859188
:1005200094919F878E87DF91CF911F9108951F939C
:10053000CF93DF93EC01162F1B821A8288EE93E093
:10054000A0E0B0E08C839D83AE83BF8381E191E026
:10055000998388831F8A1E8A198E188E1B8E1A8E85
:100560001D8E1C8E8E8D8E7F20FB81F98E8F642FC9
:10057000CE010E944502612FCE01DF91CF911F91E4
:100580000C946E02CF93DF93EC019A01AB011B8EAA
:100590001A8E198E188E1F8A1E8A60E079E08DE30C
:1005A00090E00E94C306F9012430310518F0C9011A
:1005B000039702C081E090E09D8F8C8F6C8566313F
:1005C00008F069C0C901969587958431910510F0AE
:1005D000439702C081E090E09F8B8E8B369718F096
:1005E000C901059702C081E090E0998F888FC90109
:1005F000880F991F280F391F36952795369527950F
:100600002D30310518F02C50310902C021E030E0C6
:100610003B8F2A8F90916800683050F021E06E3057
:1006200008F420E081E001C0880F2A95EAF701C0B4
:1006300084E0892B809368009C85983038F09E3048
:1006400040F0963148F020E030E008C02DE630E080
:1006500005C02BE630E002C02CE630E03C8B2B8B53
:10066000983030F481E001C0880F9A95EAF70EC007
:10067000292F30E09E3018F42850310902C02E5046
:10068000310981E001C0880F2A95EAF78D8B8C8DA6
:100690009D8D0197F1F7CE01DF91CF910C949B01D5
:1006A000FC01918D228D892F90E0805C9F4F821BF1
:1006B00091098F7399270895FC01918D828D981768
:1006C00031F0828DE80FF11D858D90E008958FEF58
:1006D0009FEF0895FC01918D828D981761F0828DB6
:1006E000DF01A80FB11D5D968C91928D9F5F9F7366
:1006F000928F90E008958FEF9FEF089583ED94E03F
:10070000892B49F080E090E0892B29F00E94D304E6
:1007100081110C9400000895FC01848DDF01A80F65
:10072000B11DA35ABF4F2C91848D90E001968F7319
:100730009927848FA689B7892C93A089B1898C9138
:1007400080648C93938D848D981306C00288F389FE
:10075000E02D80818F7D80830895EF92FF920F932B
:100760001F93CF93DF93EC0181E0888F9B8D8C8D5D
:10077000981305C0E889F989808185FD24C0F62E8B
:100780000B8D10E00F5F1F4F0F731127E02E8C8D24
:10079000E8120CC00FB607FCFACFE889F98980810E
:1007A00085FFF5CFCE010E948C03F1CF8B8DFE012A
:1007B000E80FF11DE35AFF4FF0820B8FEA89FB89A6
:1007C0008081806207C0EE89FF896083E889F989AA
:1007D00080818064808381E090E0DF91CF911F91E0
:1007E0000F91FF90EF900895CF93DF93EC01888DE8
:1007F0008823C9F0EA89FB89808185FD05C0A88925
:10080000B9898C9186FD0FC00FB607FCF5CF8081AA
:1008100085FFF2CFA889B9898C9185FFEDCFCE01F4
:100820000E948C03E7CFDF91CF910895CF92DF92A2
:10083000EF92FF921F93CF93DF93EC016A017B014C
:10084000122FE889F98982E080834115514E6105B4
:100850007105B1F060E079E08DE390E0A7019601C9
:100860000E94A106DA01C9010197A109B109B69553
:10087000A795979587959C01211580E13807A8F0E9
:10088000E889F989108260E874E88EE190E0A701B8
:1008900096010E94A106DA01C9010197A109B109D7
:1008A000B695A795979587959C01EC85FD85308336
:1008B000EE85FF852083188EEC89FD891083EA89F7
:1008C000FB89808180618083EA89FB8980818860DF
:1008D0008083EA89FB89808180688083EA89FB893B
:1008E00080818F7D8083DF91CF911F91FF90EF906A
:1008F000DF90CF9008951F920F920FB60F921124A0
:100900002F938F939F93EF93FF93E091B301F09117
:10091000B4018081E091B901F091BA0182FD12C069
:1009200090818091BC018F5F8F732091BD018217F0
:1009300051F0E091BC01F0E0ED55FE4F958F8093B2
:10094000BC0101C08081FF91EF919F918F912F9108
:100950000F900FBE0F901F9018951F920F920FB619
:100960000F9211242F933F934F935F936F937F9335
:100970008F939F93AF93BF93EF93FF9383EA91E09D
:100980000E948C03FF91EF91BF91AF919F918F9146
:100990007F916F915F914F913F912F910F900FBE7B
:1009A0000F901F90189583EA91E00E94500321E078
:1009B000892B09F420E0822F0895E3EAF1E0138205
:1009C000128288EE93E0A0E0B0E084839583A68352
:1009D000B78381E291E09183808385EC90E09587F5
:1009E000848784EC90E09787868780EC90E0918BF9
:1009F000808B81EC90E0938B828B82EC90E0958BE6
:100A0000848B86EC90E0978B868B118E128E138EE2
:100A1000148E089508950E94BE050E940A050E9442
:100A20008E00CEE7D3E00E94B0002097E1F30E9451
:100A30007E03F9CFCF92DF92EF92FF920F931F9335
:100A4000CF93DF936C01EB017B01E40EF51E00E018
:100A500010E0CE15DF0561F06991D601ED91FC91B2
:100A60000190F081E02DC6010995080F191FF1CF03
:100A7000C801DF91CF911F910F91FF90EF90DF9010
:100A8000CF9008956115710579F0FB010190002068
:100A9000E9F73197AF01461B570BDC01ED91FC9153
:100AA0000280F381E02D099480E090E00895DC015C
:100AB000ED91FC910190F081E02D09946DE271E0DF
:100AC0000C9442050F931F93CF93DF93EC010E9488
:100AD00042058C01CE010E945E05800F911FDF91BF
:100AE000CF911F910F9108951F920F920FB60F9201
:100AF00011242F933F938F939F93AF93BF93809134
:100B0000410290914202A0914302B091440230917F
:100B1000400223E0230F2D3720F40196A11DB11DC3
:100B200005C026E8230F0296A11DB11D20934002A7
:100B30008093410290934202A0934302B0934402F7
:100B40008091450290914602A0914702B0914802DF
:100B50000196A11DB11D8093450290934602A0937A
:100B60004702B0934802BF91AF919F918F913F91FF
:100B70002F910F900FBE0F901F901895789484B509
:100B8000826084BD84B5816084BD85B5826085BD89
:100B900085B5816085BDEEE6F0E08081816080836F
:100BA000E1E8F0E010828081826080838081816052
:100BB0008083E0E8F0E0808181608083E1EBF0E019
:100BC000808184608083E0EBF0E0808181608083BD
:100BD000EAE7F0E0808184608083808182608083A6
:100BE0008081816080838081806880831092C100D1
:100BF0000895833081F028F4813099F08230A1F09B
:100C000008958730A9F08830B9F08430D1F480910C
:100C100080008F7D03C0809180008F77809380005B
:100C2000089584B58F7702C084B58F7D84BD089503
:100C30008091B0008F7703C08091B0008F7D80934A
:100C4000B0000895CF93DF9390E0FC01E458FF4F8C
:100C50002491FC01E057FF4F8491882361F190E0DB
:100C6000880F991FFC01E854FF4FC591D491FC01F6
:100C7000E255FF4FA591B491611109C09FB7F89457
:100C80008881209582238883EC912E230BC06230CB
:100C900061F49FB7F8948881322F3095832388833D
:100CA000EC912E2B2C939FBF06C08FB7F894E88150
:100CB0002E2B28838FBFDF91CF9108951F93CF9361
:100CC000DF93282F30E0F901E859FF4F8491F901B3
:100CD000E458FF4FD491F901E057FF4FC491CC2362
:100CE000C1F0162F81110E94F905EC2FF0E0EE0FF4
:100CF000FF1FE255FF4FA591B4919FB7F8941111D2
:100D000004C08C91D095D82302C0EC91DE2BDC93EB
:100D10009FBFDF91CF911F91089597FB072E16F487
:100D2000009407D077FD09D00E94E20607FC05D0A9
:100D30003EF4909581959F4F0895709561957F4FF2
:100D40000895A1E21A2EAA1BBB1BFD010DC0AA1F0C
:100D5000BB1FEE1FFF1FA217B307E407F50720F024
:100D6000A21BB30BE40BF50B661F771F881F991F9F
:100D70001A9469F760957095809590959B01AC01E8
:100D8000BD01CF010895052E97FB1EF400940E942B
:100D9000DA0657FD07D00E94A10607FC03D04EF4E7
:100DA0000C94DA0650954095309521953F4F4F4F62
:100DB0005F4F089590958095709561957F4F8F4F07
:100DC0009F4F0895AA1BBB1B51E107C0AA1FBB1F61
:100DD000A617B70710F0A61BB70B881F991F5A95C7
:100DE000A9F780959095BC01CD010895EE0FFF1FE6
:100DF0000590F491E02D099410E0C3E6D0E004C022
:100E0000FE010E94F6062196C436D107C9F7F89470
:020E1000FFCF12
:100E12004254206973205265616479210000000008
:100E220000F4001A055E01D30044017601000000BF
:100E320000AD031A0550036A035C03F4030D0A00B4
:0E0E42006E616E00696E66006F7666002E00AF
:00000001FF
